{
  "_format": "hh-sol-artifact-1",
  "contractName": "Realitio_v2_1_ArbitratorWithAppeals",
  "sourceName": "contracts/Realitio_v2_1_ArbitratorWithAppeals.sol",
  "abi": [
    {
      "inputs": [
        {
          "internalType": "contract IRealitio",
          "name": "_realitio",
          "type": "address"
        },
        {
          "internalType": "string",
          "name": "_metadata",
          "type": "string"
        },
        {
          "internalType": "contract IArbitrator",
          "name": "_arbitrator",
          "type": "address"
        },
        {
          "internalType": "bytes",
          "name": "_arbitratorExtraData",
          "type": "bytes"
        },
        {
          "internalType": "string",
          "name": "_metaevidence",
          "type": "string"
        }
      ],
      "stateMutability": "nonpayable",
      "type": "constructor"
    },
    {
      "anonymous": false,
      "inputs": [
        {
          "indexed": true,
          "internalType": "uint256",
          "name": "_localDisputeID",
          "type": "uint256"
        },
        {
          "indexed": true,
          "internalType": "uint256",
          "name": "_round",
          "type": "uint256"
        },
        {
          "indexed": false,
          "internalType": "uint256",
          "name": "ruling",
          "type": "uint256"
        },
        {
          "indexed": true,
          "internalType": "address",
          "name": "_contributor",
          "type": "address"
        },
        {
          "indexed": false,
          "internalType": "uint256",
          "name": "_amount",
          "type": "uint256"
        }
      ],
      "name": "Contribution",
      "type": "event"
    },
    {
      "anonymous": false,
      "inputs": [
        {
          "indexed": true,
          "internalType": "contract IArbitrator",
          "name": "_arbitrator",
          "type": "address"
        },
        {
          "indexed": true,
          "internalType": "uint256",
          "name": "_disputeID",
          "type": "uint256"
        },
        {
          "indexed": false,
          "internalType": "uint256",
          "name": "_metaEvidenceID",
          "type": "uint256"
        },
        {
          "indexed": false,
          "internalType": "uint256",
          "name": "_evidenceGroupID",
          "type": "uint256"
        }
      ],
      "name": "Dispute",
      "type": "event"
    },
    {
      "anonymous": false,
      "inputs": [
        {
          "indexed": true,
          "internalType": "uint256",
          "name": "_disputeID",
          "type": "uint256"
        },
        {
          "indexed": false,
          "internalType": "bytes32",
          "name": "_questionID",
          "type": "bytes32"
        }
      ],
      "name": "DisputeIDToQuestionID",
      "type": "event"
    },
    {
      "anonymous": false,
      "inputs": [
        {
          "indexed": true,
          "internalType": "contract IArbitrator",
          "name": "_arbitrator",
          "type": "address"
        },
        {
          "indexed": true,
          "internalType": "uint256",
          "name": "_evidenceGroupID",
          "type": "uint256"
        },
        {
          "indexed": true,
          "internalType": "address",
          "name": "_party",
          "type": "address"
        },
        {
          "indexed": false,
          "internalType": "string",
          "name": "_evidence",
          "type": "string"
        }
      ],
      "name": "Evidence",
      "type": "event"
    },
    {
      "anonymous": false,
      "inputs": [
        {
          "indexed": true,
          "internalType": "uint256",
          "name": "_metaEvidenceID",
          "type": "uint256"
        },
        {
          "indexed": false,
          "internalType": "string",
          "name": "_evidence",
          "type": "string"
        }
      ],
      "name": "MetaEvidence",
      "type": "event"
    },
    {
      "anonymous": false,
      "inputs": [
        {
          "indexed": true,
          "internalType": "contract IArbitrator",
          "name": "_arbitrator",
          "type": "address"
        },
        {
          "indexed": true,
          "internalType": "uint256",
          "name": "_disputeID",
          "type": "uint256"
        },
        {
          "indexed": false,
          "internalType": "uint256",
          "name": "_ruling",
          "type": "uint256"
        }
      ],
      "name": "Ruling",
      "type": "event"
    },
    {
      "anonymous": false,
      "inputs": [
        {
          "indexed": true,
          "internalType": "uint256",
          "name": "_localDisputeID",
          "type": "uint256"
        },
        {
          "indexed": true,
          "internalType": "uint256",
          "name": "_round",
          "type": "uint256"
        },
        {
          "indexed": true,
          "internalType": "uint256",
          "name": "_ruling",
          "type": "uint256"
        }
      ],
      "name": "RulingFunded",
      "type": "event"
    },
    {
      "anonymous": false,
      "inputs": [
        {
          "indexed": true,
          "internalType": "uint256",
          "name": "_localDisputeID",
          "type": "uint256"
        },
        {
          "indexed": true,
          "internalType": "uint256",
          "name": "_round",
          "type": "uint256"
        },
        {
          "indexed": false,
          "internalType": "uint256",
          "name": "_ruling",
          "type": "uint256"
        },
        {
          "indexed": true,
          "internalType": "address",
          "name": "_contributor",
          "type": "address"
        },
        {
          "indexed": false,
          "internalType": "uint256",
          "name": "_reward",
          "type": "uint256"
        }
      ],
      "name": "Withdrawal",
      "type": "event"
    },
    {
      "inputs": [],
      "name": "LOSER_APPEAL_PERIOD_MULTIPLIER",
      "outputs": [
        {
          "internalType": "uint256",
          "name": "",
          "type": "uint256"
        }
      ],
      "stateMutability": "view",
      "type": "function"
    },
    {
      "inputs": [],
      "name": "LOSER_STAKE_MULTIPLIER",
      "outputs": [
        {
          "internalType": "uint256",
          "name": "",
          "type": "uint256"
        }
      ],
      "stateMutability": "view",
      "type": "function"
    },
    {
      "inputs": [],
      "name": "MULTIPLIER_DENOMINATOR",
      "outputs": [
        {
          "internalType": "uint256",
          "name": "",
          "type": "uint256"
        }
      ],
      "stateMutability": "view",
      "type": "function"
    },
    {
      "inputs": [],
      "name": "VERSION",
      "outputs": [
        {
          "internalType": "string",
          "name": "",
          "type": "string"
        }
      ],
      "stateMutability": "view",
      "type": "function"
    },
    {
      "inputs": [],
      "name": "WINNER_STAKE_MULTIPLIER",
      "outputs": [
        {
          "internalType": "uint256",
          "name": "",
          "type": "uint256"
        }
      ],
      "stateMutability": "view",
      "type": "function"
    },
    {
      "inputs": [
        {
          "internalType": "uint256",
          "name": "",
          "type": "uint256"
        }
      ],
      "name": "arbitrationRequests",
      "outputs": [
        {
          "internalType": "enum RealitioArbitratorWithAppealsBase.Status",
          "name": "status",
          "type": "uint8"
        },
        {
          "internalType": "address",
          "name": "requester",
          "type": "address"
        },
        {
          "internalType": "uint256",
          "name": "disputeID",
          "type": "uint256"
        },
        {
          "internalType": "uint256",
          "name": "ruling",
          "type": "uint256"
        }
      ],
      "stateMutability": "view",
      "type": "function"
    },
    {
      "inputs": [],
      "name": "arbitrator",
      "outputs": [
        {
          "internalType": "contract IArbitrator",
          "name": "",
          "type": "address"
        }
      ],
      "stateMutability": "view",
      "type": "function"
    },
    {
      "inputs": [],
      "name": "arbitratorExtraData",
      "outputs": [
        {
          "internalType": "bytes",
          "name": "",
          "type": "bytes"
        }
      ],
      "stateMutability": "view",
      "type": "function"
    },
    {
      "inputs": [
        {
          "internalType": "uint256",
          "name": "",
          "type": "uint256"
        }
      ],
      "name": "externalIDtoLocalID",
      "outputs": [
        {
          "internalType": "uint256",
          "name": "",
          "type": "uint256"
        }
      ],
      "stateMutability": "view",
      "type": "function"
    },
    {
      "inputs": [
        {
          "internalType": "uint256",
          "name": "_questionID",
          "type": "uint256"
        },
        {
          "internalType": "uint256",
          "name": "_ruling",
          "type": "uint256"
        }
      ],
      "name": "fundAppeal",
      "outputs": [
        {
          "internalType": "bool",
          "name": "fullyFunded",
          "type": "bool"
        }
      ],
      "stateMutability": "payable",
      "type": "function"
    },
    {
      "inputs": [
        {
          "internalType": "bytes32",
          "name": "",
          "type": "bytes32"
        }
      ],
      "name": "getDisputeFee",
      "outputs": [
        {
          "internalType": "uint256",
          "name": "fee",
          "type": "uint256"
        }
      ],
      "stateMutability": "view",
      "type": "function"
    },
    {
      "inputs": [],
      "name": "getMultipliers",
      "outputs": [
        {
          "internalType": "uint256",
          "name": "_WINNER_STAKE_MULTIPLIER",
          "type": "uint256"
        },
        {
          "internalType": "uint256",
          "name": "_LOSER_STAKE_MULTIPLIER",
          "type": "uint256"
        },
        {
          "internalType": "uint256",
          "name": "_LOSER_APPEAL_PERIOD_MULTIPLIER",
          "type": "uint256"
        },
        {
          "internalType": "uint256",
          "name": "_DENOMINATOR",
          "type": "uint256"
        }
      ],
      "stateMutability": "pure",
      "type": "function"
    },
    {
      "inputs": [
        {
          "internalType": "uint256",
          "name": "_questionID",
          "type": "uint256"
        },
        {
          "internalType": "address payable",
          "name": "_contributor",
          "type": "address"
        },
        {
          "internalType": "uint256",
          "name": "_ruling",
          "type": "uint256"
        }
      ],
      "name": "getTotalWithdrawableAmount",
      "outputs": [
        {
          "internalType": "uint256",
          "name": "sum",
          "type": "uint256"
        }
      ],
      "stateMutability": "view",
      "type": "function"
    },
    {
      "inputs": [],
      "name": "metadata",
      "outputs": [
        {
          "internalType": "string",
          "name": "",
          "type": "string"
        }
      ],
      "stateMutability": "view",
      "type": "function"
    },
    {
      "inputs": [
        {
          "internalType": "uint256",
          "name": "",
          "type": "uint256"
        }
      ],
      "name": "numberOfRulingOptions",
      "outputs": [
        {
          "internalType": "uint256",
          "name": "count",
          "type": "uint256"
        }
      ],
      "stateMutability": "pure",
      "type": "function"
    },
    {
      "inputs": [],
      "name": "realitio",
      "outputs": [
        {
          "internalType": "contract IRealitio",
          "name": "",
          "type": "address"
        }
      ],
      "stateMutability": "view",
      "type": "function"
    },
    {
      "inputs": [
        {
          "internalType": "bytes32",
          "name": "_questionID",
          "type": "bytes32"
        },
        {
          "internalType": "bytes32",
          "name": "_lastHistoryHash",
          "type": "bytes32"
        },
        {
          "internalType": "bytes32",
          "name": "_lastAnswerOrCommitmentID",
          "type": "bytes32"
        },
        {
          "internalType": "address",
          "name": "_lastAnswerer",
          "type": "address"
        }
      ],
      "name": "reportAnswer",
      "outputs": [],
      "stateMutability": "nonpayable",
      "type": "function"
    },
    {
      "inputs": [
        {
          "internalType": "bytes32",
          "name": "_questionID",
          "type": "bytes32"
        },
        {
          "internalType": "uint256",
          "name": "_maxPrevious",
          "type": "uint256"
        }
      ],
      "name": "requestArbitration",
      "outputs": [
        {
          "internalType": "uint256",
          "name": "disputeID",
          "type": "uint256"
        }
      ],
      "stateMutability": "payable",
      "type": "function"
    },
    {
      "inputs": [
        {
          "internalType": "uint256",
          "name": "_disputeID",
          "type": "uint256"
        },
        {
          "internalType": "uint256",
          "name": "_ruling",
          "type": "uint256"
        }
      ],
      "name": "rule",
      "outputs": [],
      "stateMutability": "nonpayable",
      "type": "function"
    },
    {
      "inputs": [
        {
          "internalType": "uint256",
          "name": "_questionID",
          "type": "uint256"
        },
        {
          "internalType": "string",
          "name": "_evidenceURI",
          "type": "string"
        }
      ],
      "name": "submitEvidence",
      "outputs": [],
      "stateMutability": "nonpayable",
      "type": "function"
    },
    {
      "inputs": [
        {
          "internalType": "uint256",
          "name": "_questionID",
          "type": "uint256"
        },
        {
          "internalType": "address payable",
          "name": "_contributor",
          "type": "address"
        },
        {
          "internalType": "uint256",
          "name": "_roundNumber",
          "type": "uint256"
        },
        {
          "internalType": "uint256",
          "name": "_ruling",
          "type": "uint256"
        }
      ],
      "name": "withdrawFeesAndRewards",
      "outputs": [
        {
          "internalType": "uint256",
          "name": "amount",
          "type": "uint256"
        }
      ],
      "stateMutability": "nonpayable",
      "type": "function"
    },
    {
      "inputs": [
        {
          "internalType": "uint256",
          "name": "_questionID",
          "type": "uint256"
        },
        {
          "internalType": "address payable",
          "name": "_contributor",
          "type": "address"
        },
        {
          "internalType": "uint256",
          "name": "_ruling",
          "type": "uint256"
        }
      ],
      "name": "withdrawFeesAndRewardsForAllRounds",
      "outputs": [],
      "stateMutability": "nonpayable",
      "type": "function"
    }
  ],
  "bytecode": "0x60c06040523480156200001157600080fd5b5060405162002c8d38038062002c8d833981810160405260a08110156200003757600080fd5b8101908080519060200190929190805160405193929190846401000000008211156200006257600080fd5b838201915060208201858111156200007957600080fd5b82518660018202830111640100000000821117156200009757600080fd5b8083526020830192505050908051906020019080838360005b83811015620000cd578082015181840152602081019050620000b0565b50505050905090810190601f168015620000fb5780820380516001836020036101000a031916815260200191505b5060405260200180519060200190929190805160405193929190846401000000008211156200012957600080fd5b838201915060208201858111156200014057600080fd5b82518660018202830111640100000000821117156200015e57600080fd5b8083526020830192505050908051906020019080838360005b838110156200019457808201518184015260208101905062000177565b50505050905090810190601f168015620001c25780820380516001836020036101000a031916815260200191505b5060405260200180516040519392919084640100000000821115620001e657600080fd5b83820191506020820185811115620001fd57600080fd5b82518660018202830111640100000000821117156200021b57600080fd5b8083526020830192505050908051906020019080838360005b838110156200025157808201518184015260208101905062000234565b50505050905090810190601f1680156200027f5780820380516001836020036101000a031916815260200191505b5060405250505084848484848473ffffffffffffffffffffffffffffffffffffffff1660808173ffffffffffffffffffffffffffffffffffffffff1660601b815250508360019080519060200190620002da929190620003dc565b508273ffffffffffffffffffffffffffffffffffffffff1660a08173ffffffffffffffffffffffffffffffffffffffff1660601b8152505081600090805190602001906200032a92919062000473565b5060007f61606860eb6c87306811e2695215385101daab53bd6ab4e9f9049aead9363c7d826040518080602001828103825283818151815260200191508051906020019080838360005b838110156200039157808201518184015260208101905062000374565b50505050905090810190601f168015620003bf5780820380516001836020036101000a031916815260200191505b509250505060405180910390a25050505050505050505062000529565b828054600181600116156101000203166002900490600052602060002090601f01602090048101928262000414576000855562000460565b82601f106200042f57805160ff191683800117855562000460565b8280016001018555821562000460579182015b828111156200045f57825182559160200191906001019062000442565b5b5090506200046f91906200050a565b5090565b828054600181600116156101000203166002900490600052602060002090601f016020900481019282620004ab5760008555620004f7565b82601f10620004c657805160ff1916838001178555620004f7565b82800160010185558215620004f7579182015b82811115620004f6578251825591602001919060010190620004d9565b5b5090506200050691906200050a565b5090565b5b80821115620005255760008160009055506001016200050b565b5090565b60805160601c60a05160601c6127036200058a600039806109a9528061108e528061114252806112d35280611741528061194d52806119c05280611b0e5280611c655280611dc5525080611f245280611fe2528061210152506127036000f3fe6080604052600436106101355760003560e01c8063a829c3d1116100ab578063e32511da1161006f578063e32511da146106d6578063e349ad3014610745578063ec85635b14610770578063fe2dddeb146107e9578063fe6ca7821461084e578063ffa1ad741461087957610135565b8063a829c3d1146105a4578063b34bfaa8146105f0578063bc8802a21461061b578063be4676041461065c578063c21ae0611461068757610135565b8063631eabd5116100fd578063631eabd5146103705780636cc6cde1146103f557806379873f8a146104365780638d8b2d7e14610476578063a22352e2146104c5578063a6a7f0eb1461051457610135565b80630c7ac7b61461013a578063311a6c56146101ca578063362c34791461020f578063392f37e9146102925780634b2f0ea014610322575b600080fd5b34801561014657600080fd5b5061014f610909565b6040518080602001828103825283818151815260200191508051906020019080838360005b8381101561018f578082015181840152602081019050610174565b50505050905090810190601f1680156101bc5780820380516001836020036101000a031916815260200191505b509250505060405180910390f35b3480156101d657600080fd5b5061020d600480360360408110156101ed57600080fd5b8101908080359060200190929190803590602001909291905050506109a7565b005b34801561021b57600080fd5b5061027c6004803603608081101561023257600080fd5b8101908080359060200190929190803573ffffffffffffffffffffffffffffffffffffffff1690602001909291908035906020019092919080359060200190929190505050610cb3565b6040518082815260200191505060405180910390f35b34801561029e57600080fd5b506102a7610e94565b6040518080602001828103825283818151815260200191508051906020019080838360005b838110156102e75780820151818401526020810190506102cc565b50505050905090810190601f1680156103145780820380516001836020036101000a031916815260200191505b509250505060405180910390f35b6103586004803603604081101561033857600080fd5b810190808035906020019092919080359060200190929190505050610f32565b60405180821515815260200191505060405180910390f35b34801561037c57600080fd5b506103a96004803603602081101561039357600080fd5b81019080803590602001909291905050506118ee565b604051808560038111156103b957fe5b81526020018473ffffffffffffffffffffffffffffffffffffffff16815260200183815260200182815260200194505050505060405180910390f35b34801561040157600080fd5b5061040a61194b565b604051808273ffffffffffffffffffffffffffffffffffffffff16815260200191505060405180910390f35b34801561044257600080fd5b5061044b61196f565b6040518085815260200184815260200183815260200182815260200194505050505060405180910390f35b34801561048257600080fd5b506104af6004803603602081101561049957600080fd5b810190808035906020019092919050505061198f565b6040518082815260200191505060405180910390f35b3480156104d157600080fd5b506104fe600480360360208110156104e857600080fd5b81019080803590602001909291905050506119bc565b6040518082815260200191505060405180910390f35b34801561052057600080fd5b506105a26004803603604081101561053757600080fd5b81019080803590602001909291908035906020019064010000000081111561055e57600080fd5b82018360208201111561057057600080fd5b8035906020019184600183028401116401000000008311171561059257600080fd5b9091929391929390505050611af4565b005b6105da600480360360408110156105ba57600080fd5b810190808035906020019092919080359060200190929190505050611bab565b6040518082815260200191505060405180910390f35b3480156105fc57600080fd5b50610605611fda565b6040518082815260200191505060405180910390f35b34801561062757600080fd5b50610630611fe0565b604051808273ffffffffffffffffffffffffffffffffffffffff16815260200191505060405180910390f35b34801561066857600080fd5b50610671612004565b6040518082815260200191505060405180910390f35b34801561069357600080fd5b506106c0600480360360208110156106aa57600080fd5b810190808035906020019092919050505061200a565b6040518082815260200191505060405180910390f35b3480156106e257600080fd5b50610743600480360360808110156106f957600080fd5b81019080803590602001909291908035906020019092919080359060200190929190803573ffffffffffffffffffffffffffffffffffffffff169060200190929190505050612022565b005b34801561075157600080fd5b5061075a612213565b6040518082815260200191505060405180910390f35b34801561077c57600080fd5b506107d36004803603606081101561079357600080fd5b8101908080359060200190929190803573ffffffffffffffffffffffffffffffffffffffff16906020019092919080359060200190929190505050612219565b6040518082815260200191505060405180910390f35b3480156107f557600080fd5b5061084c6004803603606081101561080c57600080fd5b8101908080359060200190929190803573ffffffffffffffffffffffffffffffffffffffff169060200190929190803590602001909291905050506122d6565b005b34801561085a57600080fd5b50610863612326565b6040518082815260200191505060405180910390f35b34801561088557600080fd5b5061088e61232c565b6040518080602001828103825283818151815260200191508051906020019080838360005b838110156108ce5780820151818401526020810190506108b3565b50505050905090810190601f1680156108fb5780820380516001836020036101000a031916815260200191505b509250505060405180910390f35b60008054600181600116156101000203166002900480601f01602080910402602001604051908101604052809291908181526020018280546001816001161561010002031660029004801561099f5780601f106109745761010080835404028352916020019161099f565b820191906000526020600020905b81548152906001019060200180831161098257829003601f168201915b505050505081565b7f000000000000000000000000000000000000000000000000000000000000000073ffffffffffffffffffffffffffffffffffffffff163373ffffffffffffffffffffffffffffffffffffffff1614610a68576040517f08c379a00000000000000000000000000000000000000000000000000000000081526004018080602001828103825260178152602001807f4f6e6c792061726269747261746f7220616c6c6f77656400000000000000000081525060200191505060405180910390fd5b60017fffffffffffffffffffffffffffffffffffffffffffffffffffffffffffffffff03811115610b01576040517f08c379a000000000000000000000000000000000000000000000000000000000815260040180806020018281038252600e8152602001807f496e76616c69642072756c696e6700000000000000000000000000000000000081525060200191505060405180910390fd5b600060036000848152602001908152602001600020549050600060026000838152602001908152602001600020905060016003811115610b3d57fe5b8160000160009054906101000a900460ff166003811115610b5a57fe5b14610bcd576040517f08c379a000000000000000000000000000000000000000000000000000000000815260040180806020018281038252601a8152602001807f496e76616c6964206172626974726174696f6e2073746174757300000000000081525060200191505060405180910390fd5b600081600301600183600301805490500381548110610be857fe5b9060005260206000209060050201905060006001826004018054905014610c0f5784610c2b565b81600401600081548110610c1f57fe5b90600052602060002001545b905080836002018190555060028360000160006101000a81548160ff02191690836003811115610c5757fe5b0217905550853373ffffffffffffffffffffffffffffffffffffffff167f394027a5fa6e098a1191094d1719d6929b9abc535fcc0c8f448d6a4e75622276836040518082815260200191505060405180910390a3505050505050565b60008060026000878152602001908152602001600020905060016003811115610cd857fe5b8160000160009054906101000a900460ff166003811115610cf557fe5b11610d68576040517f08c379a00000000000000000000000000000000000000000000000000000000081526004018080602001828103825260178152602001807f5468657265206973206e6f2072756c696e67207965742e00000000000000000081525060200191505060405180910390fd5b6000816003018581548110610d7957fe5b90600052602060002090600502019050610d998187868560020154612365565b925060008314610e8a5760008160020160008873ffffffffffffffffffffffffffffffffffffffff1673ffffffffffffffffffffffffffffffffffffffff1681526020019081526020016000206000868152602001908152602001600020819055508573ffffffffffffffffffffffffffffffffffffffff166108fc849081150290604051600060405180830381858888f19350505050508573ffffffffffffffffffffffffffffffffffffffff1685887f54b3cab3cb5c4aca3209db1151caff092e878011202e43a36782d4ebe0b963ae8787604051808381526020018281526020019250505060405180910390a45b5050949350505050565b60018054600181600116156101000203166002900480601f016020809104026020016040519081016040528092919081815260200182805460018160011615610100020316600290048015610f2a5780601f10610eff57610100808354040283529160200191610f2a565b820191906000526020600020905b815481529060010190602001808311610f0d57829003601f168201915b505050505081565b600060017fffffffffffffffffffffffffffffffffffffffffffffffffffffffffffffffff03821115610fcd576040517f08c379a00000000000000000000000000000000000000000000000000000000081526004018080602001828103825260178152602001807f416e73776572206973206f7574206f6620626f756e647300000000000000000081525060200191505060405180910390fd5b600060026000858152602001908152602001600020905060016003811115610ff157fe5b8160000160009054906101000a900460ff16600381111561100e57fe5b14611081576040517f08c379a00000000000000000000000000000000000000000000000000000000081526004018080602001828103825260158152602001807f4e6f206469737075746520746f2061707065616c2e000000000000000000000081525060200191505060405180910390fd5b60008160010154905060007f000000000000000000000000000000000000000000000000000000000000000073ffffffffffffffffffffffffffffffffffffffff16631c3db16d836040518263ffffffff1660e01b81526004018082815260200191505060206040518083038186803b1580156110fd57600080fd5b505afa158015611111573d6000803e3d6000fd5b505050506040513d602081101561112757600080fd5b810190808051906020019092919050505090506000806000807f000000000000000000000000000000000000000000000000000000000000000073ffffffffffffffffffffffffffffffffffffffff1663afe15cfb876040518263ffffffff1660e01b815260040180828152602001915050604080518083038186803b1580156111b057600080fd5b505afa1580156111c4573d6000803e3d6000fd5b505050506040513d60408110156111da57600080fd5b810190808051906020019092919080519060200190929190505050915091506000858a14156112655781421061125b576040517f08c379a000000000000000000000000000000000000000000000000000000000815260040180806020018281038252602e815260200180612646602e913960400191505060405180910390fd5b610bb890506112d1565b60028383038161127157fe5b04830142106112cb576040517f08c379a00000000000000000000000000000000000000000000000000000000081526004018080602001828103825260398152602001806126956039913960400191505060405180910390fd5b611b5890505b7f000000000000000000000000000000000000000000000000000000000000000073ffffffffffffffffffffffffffffffffffffffff1663f23f16e68860006040518363ffffffff1660e01b815260040180838152602001806020018281038252838181546001816001161561010002031660029004815260200191508054600181600116156101000203166002900480156113ae5780601f10611383576101008083540402835291602001916113ae565b820191906000526020600020905b81548152906001019060200180831161139157829003601f168201915b5050935050505060206040518083038186803b1580156113cd57600080fd5b505afa1580156113e1573d6000803e3d6000fd5b505050506040513d60208110156113f757600080fd5b8101908080519060200190929190505050945061143a612710611423838861258990919063ffffffff16565b8161142a57fe5b04866125e590919063ffffffff16565b9350505050600060018660030180549050039050600086600301828154811061145f57fe5b906000526020600020906005020190508060010160008a815260200190815260200160002060009054906101000a900460ff16156114e8576040517f08c379a00000000000000000000000000000000000000000000000000000000081526004018080602001828103825260218152602001806126746021913960400191505060405180910390fd5b6000346115138360000160008d8152602001908152602001600020548661262690919063ffffffff16565b11611545576115408260000160008c8152602001908152602001600020548561262690919063ffffffff16565b611547565b345b90503373ffffffffffffffffffffffffffffffffffffffff16838c7fcae597f39a3ad75c2e10d46b031f023c5c2babcd58ca0491b122acda3968d4c08d85604051808381526020018281526020019250505060405180910390a4808260020160003373ffffffffffffffffffffffffffffffffffffffff1673ffffffffffffffffffffffffffffffffffffffff16815260200190815260200160002060008c815260200190815260200160002060008282540192505081905550808260000160008c815260200190815260200160002060008282540192505081905550838260000160008c815260200190815260200160002054106116f0578160000160008b8152602001908152602001600020548260030160008282540192505081905550816004018a908060018154018082558091505060019003906000526020600020016000909190919091505560018260010160008c815260200190815260200160002060006101000a81548160ff02191690831515021790555089838c7f39493c1b78d9a13bcc9e1d532fc7faed3889248d93affa811416ce3c6bcb1a6860405160405180910390a45b60028260040180549050141561185757876003016001816001815401808255809150500390600052602060002090505061173785836003015461262690919063ffffffff16565b82600301819055507f000000000000000000000000000000000000000000000000000000000000000073ffffffffffffffffffffffffffffffffffffffff166349912f88868960006040518463ffffffff1660e01b8152600401808381526020018060200182810382528381815460018160011615610100020316600290048152602001915080546001816001161561010002031660029004801561181d5780601f106117f25761010080835404028352916020019161181d565b820191906000526020600020905b81548152906001019060200180831161180057829003601f168201915b505093505050506000604051808303818588803b15801561183d57600080fd5b505af1158015611851573d6000803e3d6000fd5b50505050505b600061186c823461262690919063ffffffff16565b11156118bb573373ffffffffffffffffffffffffffffffffffffffff166108fc61189f833461262690919063ffffffff16565b9081150290604051600060405180830381858888f19350505050505b8160010160008b815260200190815260200160002060009054906101000a900460ff169850505050505050505092915050565b60026020528060005260406000206000915090508060000160009054906101000a900460ff16908060000160019054906101000a900473ffffffffffffffffffffffffffffffffffffffff16908060010154908060020154905084565b7f000000000000000000000000000000000000000000000000000000000000000081565b600080600080610bb8611b58611388612710935093509350935090919293565b600060017fffffffffffffffffffffffffffffffffffffffffffffffffffffffffffffffff039050919050565b60007f000000000000000000000000000000000000000000000000000000000000000073ffffffffffffffffffffffffffffffffffffffff1663f7434ea960006040518263ffffffff1660e01b81526004018080602001828103825283818154600181600116156101000203166002900481526020019150805460018160011615610100020316600290048015611a945780601f10611a6957610100808354040283529160200191611a94565b820191906000526020600020905b815481529060010190602001808311611a7757829003601f168201915b50509250505060206040518083038186803b158015611ab257600080fd5b505afa158015611ac6573d6000803e3d6000fd5b505050506040513d6020811015611adc57600080fd5b81019080805190602001909291905050509050919050565b3373ffffffffffffffffffffffffffffffffffffffff16837f000000000000000000000000000000000000000000000000000000000000000073ffffffffffffffffffffffffffffffffffffffff167fdccf2f8b2cc26eafcd61905cba744cff4b81d14740725f6376390dc6298a6a3c858560405180806020018281038252848482818152602001925080828437600081840152601f19601f820116905080830192505050935050505060405180910390a4505050565b600080600260008560001c8152602001908152602001600020905060006003811115611bd357fe5b8160000160009054906101000a900460ff166003811115611bf057fe5b14611c63576040517f08c379a000000000000000000000000000000000000000000000000000000000815260040180806020018281038252601d8152602001807f4172626974726174696f6e20616c72656164792072657175657374656400000081525060200191505060405180910390fd5b7f000000000000000000000000000000000000000000000000000000000000000073ffffffffffffffffffffffffffffffffffffffff1663c13517e13460017fffffffffffffffffffffffffffffffffffffffffffffffffffffffffffffffff0360006040518463ffffffff1660e01b81526004018083815260200180602001828103825283818154600181600116156101000203166002900481526020019150805460018160011615610100020316600290048015611d645780601f10611d3957610100808354040283529160200191611d64565b820191906000526020600020905b815481529060010190602001808311611d4757829003601f168201915b505093505050506020604051808303818588803b158015611d8457600080fd5b505af1158015611d98573d6000803e3d6000fd5b50505050506040513d6020811015611daf57600080fd5b81019080805190602001909291905050509150817f000000000000000000000000000000000000000000000000000000000000000073ffffffffffffffffffffffffffffffffffffffff167f74baab670a4015ab2f1b467c5252a96141a2573f2908e58a92081e80d3cfde3d60008760001c604051808381526020018281526020019250505060405180910390a3817fcbb827f06aed2dd1e157f8e6b29f32604bc4e88360964014c4d4ad259f8d3fa8856040518082815260200191505060405180910390a28360001c6003600084815260200190815260200160002081905550338160000160016101000a81548173ffffffffffffffffffffffffffffffffffffffff021916908373ffffffffffffffffffffffffffffffffffffffff16021790555060018160000160006101000a81548160ff02191690836003811115611ef457fe5b021790555081816001018190555080600301600181600181540180825580915050039060005260206000209050507f000000000000000000000000000000000000000000000000000000000000000073ffffffffffffffffffffffffffffffffffffffff1663f6a94ecb8533866040518463ffffffff1660e01b8152600401808481526020018373ffffffffffffffffffffffffffffffffffffffff1681526020018281526020019350505050600060405180830381600087803b158015611fbb57600080fd5b505af1158015611fcf573d6000803e3d6000fd5b505050505092915050565b611b5881565b7f000000000000000000000000000000000000000000000000000000000000000081565b61138881565b60036020528060005260406000206000915090505481565b6000600260008660001c815260200190815260200160002090506002600381111561204957fe5b8160000160009054906101000a900460ff16600381111561206657fe5b146120d9576040517f08c379a000000000000000000000000000000000000000000000000000000000815260040180806020018281038252601b8152602001807f546865207374617475732073686f756c642062652052756c65642e000000000081525060200191505060405180910390fd5b60038160000160006101000a81548160ff021916908360038111156120fa57fe5b02179055507f000000000000000000000000000000000000000000000000000000000000000073ffffffffffffffffffffffffffffffffffffffff1663d44e293c86600184600201540360001b8460000160019054906101000a900473ffffffffffffffffffffffffffffffffffffffff168888886040518763ffffffff1660e01b8152600401808781526020018681526020018573ffffffffffffffffffffffffffffffffffffffff1681526020018481526020018381526020018273ffffffffffffffffffffffffffffffffffffffff1681526020019650505050505050600060405180830381600087803b1580156121f457600080fd5b505af1158015612208573d6000803e3d6000fd5b505050505050505050565b610bb881565b6000806002600086815260200190815260200160002090506002600381111561223e57fe5b8160000160009054906101000a900460ff16600381111561225b57fe5b101561226b5760009150506122cf565b60008160030180549050905060008260020154905060005b828110156122ca57600084600301828154811061229c57fe5b906000526020600020906005020190506122b881898986612365565b86019550508080600101915050612283565b505050505b9392505050565b600060026000858152602001908152602001600020905060008160030180549050905060005b8181101561231e5761231086868387610cb3565b5080806001019150506122fc565b505050505050565b61271081565b6040518060400160405280600581526020017f322e302e3000000000000000000000000000000000000000000000000000000081525081565b600084600101600084815260200190815260200160002060009054906101000a900460ff166123e8578460020160008573ffffffffffffffffffffffffffffffffffffffff1673ffffffffffffffffffffffffffffffffffffffff1681526020019081526020016000206000848152602001908152602001600020549050612581565b81831415612493576000856000016000858152602001908152602001600020541161241457600061248c565b8460000160008481526020019081526020016000205485600301548660020160008773ffffffffffffffffffffffffffffffffffffffff1673ffffffffffffffffffffffffffffffffffffffff168152602001908152602001600020600086815260200190815260200160002054028161248a57fe5b045b9050612580565b84600101600083815260200190815260200160002060009054906101000a900460ff1661257f57846000016000866004016001815481106124d057fe5b90600052602060002001548152602001908152602001600020548560000160008760040160008154811061250057fe5b90600052602060002001548152602001908152602001600020540185600301548660020160008773ffffffffffffffffffffffffffffffffffffffff1673ffffffffffffffffffffffffffffffffffffffff168152602001908152602001600020600086815260200190815260200160002054028161257b57fe5b0490505b5b5b949350505050565b60008083141561259c57600090506125df565b60008284029050828482816125ad57fe5b04146125d9577fffffffffffffffffffffffffffffffffffffffffffffffffffffffffffffffff6125db565b805b9150505b92915050565b60008082840190508381101561261b577fffffffffffffffffffffffffffffffffffffffffffffffffffffffffffffffff61261d565b805b91505092915050565b600082821115612639576000905061263f565b81830390505b9291505056fe46756e64696e67206d757374206265206d6164652077697468696e207468652061707065616c20706572696f642e41707065616c206665652068617320616c7265616479206265656e20706169642e46756e64696e67206d757374206265206d6164652077697468696e207468652066697273742068616c662061707065616c20706572696f642ea264697066735822122027cdf39e23fbe29aa2a7a90f52e339b417a35fdf3440961bcd63aa7a1eea691064736f6c63430007060033",
  "linkReferences": {},
  "deployedLinkReferences": {}
}